{
  "_format": "hh-sol-artifact-1",
  "contractName": "AfriBarbieNFT",
  "sourceName": "contracts/AfriBarbieNFT.sol",
  "abi": [
    {
      "inputs": [],
      "stateMutability": "nonpayable",
      "type": "constructor"
    },
    {
      "inputs": [],
      "name": "ApprovalCallerNotOwnerNorApproved",
      "type": "error"
    },
    {
      "inputs": [],
      "name": "ApprovalQueryForNonexistentToken",
      "type": "error"
    },
    {
      "inputs": [],
      "name": "BalanceQueryForZeroAddress",
      "type": "error"
    },
    {
      "inputs": [],
      "name": "MintERC2309QuantityExceedsLimit",
      "type": "error"
    },
    {
      "inputs": [],
      "name": "MintToZeroAddress",
      "type": "error"
    },
    {
      "inputs": [],
      "name": "MintZeroQuantity",
      "type": "error"
    },
    {
      "inputs": [],
      "name": "NotCompatibleWithSpotMints",
      "type": "error"
    },
    {
      "inputs": [],
      "name": "OwnerQueryForNonexistentToken",
      "type": "error"
    },
    {
      "inputs": [],
      "name": "OwnershipNotInitializedForExtraData",
      "type": "error"
    },
    {
      "inputs": [],
      "name": "SequentialMintExceedsLimit",
      "type": "error"
    },
    {
      "inputs": [],
      "name": "SequentialUpToTooSmall",
      "type": "error"
    },
    {
      "inputs": [],
      "name": "SpotMintTokenIdTooSmall",
      "type": "error"
    },
    {
      "inputs": [],
      "name": "TokenAlreadyExists",
      "type": "error"
    },
    {
      "inputs": [],
      "name": "TransferCallerNotOwnerNorApproved",
      "type": "error"
    },
    {
      "inputs": [],
      "name": "TransferFromIncorrectOwner",
      "type": "error"
    },
    {
      "inputs": [],
      "name": "TransferToNonERC721ReceiverImplementer",
      "type": "error"
    },
    {
      "inputs": [],
      "name": "TransferToZeroAddress",
      "type": "error"
    },
    {
      "inputs": [],
      "name": "URIQueryForNonexistentToken",
      "type": "error"
    },
    {
      "anonymous": false,
      "inputs": [
        {
          "indexed": true,
          "internalType": "address",
          "name": "owner",
          "type": "address"
        },
        {
          "indexed": true,
          "internalType": "address",
          "name": "approved",
          "type": "address"
        },
        {
          "indexed": true,
          "internalType": "uint256",
          "name": "tokenId",
          "type": "uint256"
        }
      ],
      "name": "Approval",
      "type": "event"
    },
    {
      "anonymous": false,
      "inputs": [
        {
          "indexed": true,
          "internalType": "address",
          "name": "owner",
          "type": "address"
        },
        {
          "indexed": true,
          "internalType": "address",
          "name": "operator",
          "type": "address"
        },
        {
          "indexed": false,
          "internalType": "bool",
          "name": "approved",
          "type": "bool"
        }
      ],
      "name": "ApprovalForAll",
      "type": "event"
    },
    {
      "anonymous": false,
      "inputs": [
        {
          "indexed": true,
          "internalType": "uint256",
          "name": "fromTokenId",
          "type": "uint256"
        },
        {
          "indexed": false,
          "internalType": "uint256",
          "name": "toTokenId",
          "type": "uint256"
        },
        {
          "indexed": true,
          "internalType": "address",
          "name": "from",
          "type": "address"
        },
        {
          "indexed": true,
          "internalType": "address",
          "name": "to",
          "type": "address"
        }
      ],
      "name": "ConsecutiveTransfer",
      "type": "event"
    },
    {
      "anonymous": false,
      "inputs": [
        {
          "indexed": true,
          "internalType": "address",
          "name": "from",
          "type": "address"
        },
        {
          "indexed": true,
          "internalType": "address",
          "name": "to",
          "type": "address"
        },
        {
          "indexed": true,
          "internalType": "uint256",
          "name": "tokenId",
          "type": "uint256"
        }
      ],
      "name": "Transfer",
      "type": "event"
    },
    {
      "inputs": [
        {
          "internalType": "address",
          "name": "to",
          "type": "address"
        },
        {
          "internalType": "uint256",
          "name": "tokenId",
          "type": "uint256"
        }
      ],
      "name": "approve",
      "outputs": [],
      "stateMutability": "payable",
      "type": "function"
    },
    {
      "inputs": [
        {
          "internalType": "address",
          "name": "owner",
          "type": "address"
        }
      ],
      "name": "balanceOf",
      "outputs": [
        {
          "internalType": "uint256",
          "name": "",
          "type": "uint256"
        }
      ],
      "stateMutability": "view",
      "type": "function"
    },
    {
      "inputs": [
        {
          "internalType": "uint256",
          "name": "tokenId",
          "type": "uint256"
        }
      ],
      "name": "getApproved",
      "outputs": [
        {
          "internalType": "address",
          "name": "",
          "type": "address"
        }
      ],
      "stateMutability": "view",
      "type": "function"
    },
    {
      "inputs": [
        {
          "internalType": "address",
          "name": "owner",
          "type": "address"
        },
        {
          "internalType": "address",
          "name": "operator",
          "type": "address"
        }
      ],
      "name": "isApprovedForAll",
      "outputs": [
        {
          "internalType": "bool",
          "name": "",
          "type": "bool"
        }
      ],
      "stateMutability": "view",
      "type": "function"
    },
    {
      "inputs": [],
      "name": "maxSupply",
      "outputs": [
        {
          "internalType": "uint8",
          "name": "",
          "type": "uint8"
        }
      ],
      "stateMutability": "view",
      "type": "function"
    },
    {
      "inputs": [],
      "name": "name",
      "outputs": [
        {
          "internalType": "string",
          "name": "",
          "type": "string"
        }
      ],
      "stateMutability": "view",
      "type": "function"
    },
    {
      "inputs": [
        {
          "internalType": "uint256",
          "name": "tokenId",
          "type": "uint256"
        }
      ],
      "name": "ownerOf",
      "outputs": [
        {
          "internalType": "address",
          "name": "",
          "type": "address"
        }
      ],
      "stateMutability": "view",
      "type": "function"
    },
    {
      "inputs": [],
      "name": "promptDescription",
      "outputs": [
        {
          "internalType": "string",
          "name": "",
          "type": "string"
        }
      ],
      "stateMutability": "pure",
      "type": "function"
    },
    {
      "inputs": [
        {
          "internalType": "uint8",
          "name": "_quantity",
          "type": "uint8"
        }
      ],
      "name": "safeMint",
      "outputs": [],
      "stateMutability": "payable",
      "type": "function"
    },
    {
      "inputs": [
        {
          "internalType": "address",
          "name": "from",
          "type": "address"
        },
        {
          "internalType": "address",
          "name": "to",
          "type": "address"
        },
        {
          "internalType": "uint256",
          "name": "tokenId",
          "type": "uint256"
        }
      ],
      "name": "safeTransferFrom",
      "outputs": [],
      "stateMutability": "payable",
      "type": "function"
    },
    {
      "inputs": [
        {
          "internalType": "address",
          "name": "from",
          "type": "address"
        },
        {
          "internalType": "address",
          "name": "to",
          "type": "address"
        },
        {
          "internalType": "uint256",
          "name": "tokenId",
          "type": "uint256"
        },
        {
          "internalType": "bytes",
          "name": "_data",
          "type": "bytes"
        }
      ],
      "name": "safeTransferFrom",
      "outputs": [],
      "stateMutability": "payable",
      "type": "function"
    },
    {
      "inputs": [
        {
          "internalType": "address",
          "name": "operator",
          "type": "address"
        },
        {
          "internalType": "bool",
          "name": "approved",
          "type": "bool"
        }
      ],
      "name": "setApprovalForAll",
      "outputs": [],
      "stateMutability": "nonpayable",
      "type": "function"
    },
    {
      "inputs": [
        {
          "internalType": "bytes4",
          "name": "interfaceId",
          "type": "bytes4"
        }
      ],
      "name": "supportsInterface",
      "outputs": [
        {
          "internalType": "bool",
          "name": "",
          "type": "bool"
        }
      ],
      "stateMutability": "view",
      "type": "function"
    },
    {
      "inputs": [],
      "name": "symbol",
      "outputs": [
        {
          "internalType": "string",
          "name": "",
          "type": "string"
        }
      ],
      "stateMutability": "view",
      "type": "function"
    },
    {
      "inputs": [
        {
          "internalType": "uint256",
          "name": "tokenId",
          "type": "uint256"
        }
      ],
      "name": "tokenURI",
      "outputs": [
        {
          "internalType": "string",
          "name": "",
          "type": "string"
        }
      ],
      "stateMutability": "view",
      "type": "function"
    },
    {
      "inputs": [],
      "name": "totalSupply",
      "outputs": [
        {
          "internalType": "uint256",
          "name": "result",
          "type": "uint256"
        }
      ],
      "stateMutability": "view",
      "type": "function"
    },
    {
      "inputs": [
        {
          "internalType": "address",
          "name": "from",
          "type": "address"
        },
        {
          "internalType": "address",
          "name": "to",
          "type": "address"
        },
        {
          "internalType": "uint256",
          "name": "tokenId",
          "type": "uint256"
        }
      ],
      "name": "transferFrom",
      "outputs": [],
      "stateMutability": "payable",
      "type": "function"
    }
  ],
  "bytecode": "0x60806040526005600960006101000a81548160ff021916908360ff1602179055503480156200002d57600080fd5b506040518060400160405280600d81526020017f416672694261726269654e4654000000000000000000000000000000000000008152506040518060400160405280600381526020017f41465400000000000000000000000000000000000000000000000000000000008152508160029081620000ab9190620003cd565b508060039081620000bd9190620003cd565b50620000ce6200011c60201b60201c565b600081905550620000e46200011c60201b60201c565b620000f46200012160201b60201c565b101562000114576200011363fed8210f60e01b6200014960201b60201c565b5b5050620004b4565b600090565b60007fffffffffffffffffffffffffffffffffffffffffffffffffffffffffffffffff905090565b8060005260046000fd5b600081519050919050565b7f4e487b7100000000000000000000000000000000000000000000000000000000600052604160045260246000fd5b7f4e487b7100000000000000000000000000000000000000000000000000000000600052602260045260246000fd5b60006002820490506001821680620001d557607f821691505b602082108103620001eb57620001ea6200018d565b5b50919050565b60008190508160005260206000209050919050565b60006020601f8301049050919050565b600082821b905092915050565b600060088302620002557fffffffffffffffffffffffffffffffffffffffffffffffffffffffffffffffff8262000216565b62000261868362000216565b95508019841693508086168417925050509392505050565b6000819050919050565b6000819050919050565b6000620002ae620002a8620002a28462000279565b62000283565b62000279565b9050919050565b6000819050919050565b620002ca836200028d565b620002e2620002d982620002b5565b84845462000223565b825550505050565b600090565b620002f9620002ea565b62000306818484620002bf565b505050565b5b818110156200032e5762000322600082620002ef565b6001810190506200030c565b5050565b601f8211156200037d576200034781620001f1565b620003528462000206565b8101602085101562000362578190505b6200037a620003718562000206565b8301826200030b565b50505b505050565b600082821c905092915050565b6000620003a26000198460080262000382565b1980831691505092915050565b6000620003bd83836200038f565b9150826002028217905092915050565b620003d88262000153565b67ffffffffffffffff811115620003f457620003f36200015e565b5b620004008254620001bc565b6200040d82828562000332565b600060209050601f83116001811462000445576000841562000430578287015190505b6200043c8582620003af565b865550620004ac565b601f1984166200045586620001f1565b60005b828110156200047f5784890151825560018201915060208501945060208101905062000458565b868310156200049f57848901516200049b601f8916826200038f565b8355505b6001600288020188555050505b505050505050565b611db980620004c46000396000f3fe6080604052600436106100fe5760003560e01c806370a0823111610095578063b88d4fde11610064578063b88d4fde14610320578063c87b56dd1461033c578063d5abeb0114610379578063da863ed6146103a4578063e985e9c5146103c0576100fe565b806370a082311461026457806395363731146102a157806395d89b41146102cc578063a22cb465146102f7576100fe565b806318160ddd116100d157806318160ddd146101c457806323b872dd146101ef57806342842e0e1461020b5780636352211e14610227576100fe565b806301ffc9a71461010357806306fdde0314610140578063081812fc1461016b578063095ea7b3146101a8575b600080fd5b34801561010f57600080fd5b5061012a6004803603810190610125919061153d565b6103fd565b6040516101379190611585565b60405180910390f35b34801561014c57600080fd5b5061015561048f565b6040516101629190611630565b60405180910390f35b34801561017757600080fd5b50610192600480360381019061018d9190611688565b610521565b60405161019f91906116f6565b60405180910390f35b6101c260048036038101906101bd919061173d565b61057f565b005b3480156101d057600080fd5b506101d961058f565b6040516101e6919061178c565b60405180910390f35b610209600480360381019061020491906117a7565b6105dc565b005b610225600480360381019061022091906117a7565b61089d565b005b34801561023357600080fd5b5061024e60048036038101906102499190611688565b6108bd565b60405161025b91906116f6565b60405180910390f35b34801561027057600080fd5b5061028b600480360381019061028691906117fa565b6108cf565b604051610298919061178c565b60405180910390f35b3480156102ad57600080fd5b506102b66108e1565b6040516102c39190611630565b60405180910390f35b3480156102d857600080fd5b506102e1610901565b6040516102ee9190611630565b60405180910390f35b34801561030357600080fd5b5061031e60048036038101906103199190611853565b610993565b005b61033a600480360381019061033591906119c8565b610a9e565b005b34801561034857600080fd5b50610363600480360381019061035e9190611688565b610af0565b6040516103709190611630565b60405180910390f35b34801561038557600080fd5b5061038e610b6d565b60405161039b9190611a67565b60405180910390f35b6103be60048036038101906103b99190611aae565b610b80565b005b3480156103cc57600080fd5b506103e760048036038101906103e29190611adb565b610b90565b6040516103f49190611585565b60405180910390f35b60006301ffc9a760e01b827bffffffffffffffffffffffffffffffffffffffffffffffffffffffff1916148061045857506380ac58cd60e01b827bffffffffffffffffffffffffffffffffffffffffffffffffffffffff1916145b806104885750635b5e139f60e01b827bffffffffffffffffffffffffffffffffffffffffffffffffffffffff1916145b9050919050565b60606002805461049e90611b4a565b80601f01602080910402602001604051908101604052809291908181526020018280546104ca90611b4a565b80156105175780601f106104ec57610100808354040283529160200191610517565b820191906000526020600020905b8154815290600101906020018083116104fa57829003601f168201915b5050505050905090565b600061052c82610c24565b6105415761054063cf4700e460e01b610cd0565b5b6006600083815260200190815260200160002060000160009054906101000a900473ffffffffffffffffffffffffffffffffffffffff169050919050565b61058b82826001610cda565b5050565b6000610599610e09565b600154600054030390507fffffffffffffffffffffffffffffffffffffffffffffffffffffffffffffffff6105cc610e0e565b146105d957600854810190505b90565b60006105e782610e36565b905073ffffffffffffffffffffffffffffffffffffffff8473ffffffffffffffffffffffffffffffffffffffff161693508373ffffffffffffffffffffffffffffffffffffffff168173ffffffffffffffffffffffffffffffffffffffff161461065c5761065b63a114810060e01b610cd0565b5b60008061066884610f4f565b9150915061067e8187610679610f76565b610f7e565b6106a9576106938661068e610f76565b610b90565b6106a8576106a76359c896be60e01b610cd0565b5b5b6106b68686866001610fc2565b80156106c157600082555b600560008773ffffffffffffffffffffffffffffffffffffffff1673ffffffffffffffffffffffffffffffffffffffff168152602001908152602001600020600081546001900391905081905550600560008673ffffffffffffffffffffffffffffffffffffffff1673ffffffffffffffffffffffffffffffffffffffff168152602001908152602001600020600081546001019190508190555061078f8561076b888887610fc8565b7c020000000000000000000000000000000000000000000000000000000017610ff0565b600460008681526020019081526020016000208190555060007c02000000000000000000000000000000000000000000000000000000008416036108155760006001850190506000600460008381526020019081526020016000205403610813576000548114610812578360046000838152602001908152602001600020819055505b5b505b600073ffffffffffffffffffffffffffffffffffffffff8673ffffffffffffffffffffffffffffffffffffffff161690508481887fddf252ad1be2c89b69c2b068fc378daa952ba7f163c4a11628f55a4df523b3ef600080a4600081036108875761088663ea553b3460e01b610cd0565b5b610894878787600161101b565b50505050505050565b6108b883838360405180602001604052806000815250610a9e565b505050565b60006108c882610e36565b9050919050565b60006108da82611021565b9050919050565b6060604051806060016040528060378152602001611d1760379139905090565b60606003805461091090611b4a565b80601f016020809104026020016040519081016040528092919081815260200182805461093c90611b4a565b80156109895780601f1061095e57610100808354040283529160200191610989565b820191906000526020600020905b81548152906001019060200180831161096c57829003601f168201915b5050505050905090565b80600760006109a0610f76565b73ffffffffffffffffffffffffffffffffffffffff1673ffffffffffffffffffffffffffffffffffffffff16815260200190815260200160002060008473ffffffffffffffffffffffffffffffffffffffff1673ffffffffffffffffffffffffffffffffffffffff16815260200190815260200160002060006101000a81548160ff0219169083151502179055508173ffffffffffffffffffffffffffffffffffffffff16610a4d610f76565b73ffffffffffffffffffffffffffffffffffffffff167f17307eab39ab6107e8899845ad3d59bd9653f200f220920489ca2b5937696c3183604051610a929190611585565b60405180910390a35050565b610aa98484846105dc565b60008373ffffffffffffffffffffffffffffffffffffffff163b14610aea57610ad4848484846110b8565b610ae957610ae863d1a57ed660e01b610cd0565b5b5b50505050565b6060610afb82610c24565b610b1057610b0f63a14c4b5060e01b610cd0565b5b6000610b1a6111e7565b90506000815103610b3a5760405180602001604052806000815250610b65565b80610b4484611207565b604051602001610b55929190611bb7565b6040516020818303038152906040525b915050919050565b600960009054906101000a900460ff1681565b610b8d338260ff16611257565b50565b6000600760008473ffffffffffffffffffffffffffffffffffffffff1673ffffffffffffffffffffffffffffffffffffffff16815260200190815260200160002060008373ffffffffffffffffffffffffffffffffffffffff1673ffffffffffffffffffffffffffffffffffffffff16815260200190815260200160002060009054906101000a900460ff16905092915050565b600081610c2f610e09565b11610cca57610c3c610e0e565b821115610c6657610c5f6004600084815260200190815260200160002054611275565b9050610ccb565b600054821015610cc95760005b6000600460008581526020019081526020016000205491508103610ca25782610c9b90611c0a565b9250610c73565b60007c01000000000000000000000000000000000000000000000000000000008216149150505b5b5b919050565b8060005260046000fd5b6000610ce5836108bd565b9050818015610d2757508073ffffffffffffffffffffffffffffffffffffffff16610d0e610f76565b73ffffffffffffffffffffffffffffffffffffffff1614155b15610d5357610d3d81610d38610f76565b610b90565b610d5257610d5163cfb3b94260e01b610cd0565b5b5b836006600085815260200190815260200160002060000160006101000a81548173ffffffffffffffffffffffffffffffffffffffff021916908373ffffffffffffffffffffffffffffffffffffffff160217905550828473ffffffffffffffffffffffffffffffffffffffff168273ffffffffffffffffffffffffffffffffffffffff167f8c5be1e5ebec7d5bd14f71427d1e84f3dd0314c0f7b2291e5b200ac8c7c3b92560405160405180910390a450505050565b600090565b60007fffffffffffffffffffffffffffffffffffffffffffffffffffffffffffffffff905090565b600081610e41610e09565b11610f395760046000838152602001908152602001600020549050610e64610e0e565b821115610e8957610e7481611275565b610f4a57610e8863df2d9b4260e01b610cd0565b5b60008103610f10576000548210610eab57610eaa63df2d9b4260e01b610cd0565b5b5b60046000836001900393508381526020019081526020016000205490506000810315610f0b5760007c010000000000000000000000000000000000000000000000000000000082160315610f4a57610f0a63df2d9b4260e01b610cd0565b5b610eac565b60007c010000000000000000000000000000000000000000000000000000000082160315610f4a575b610f4963df2d9b4260e01b610cd0565b5b919050565b60008060006006600085815260200190815260200160002090508092508254915050915091565b600033905090565b600073ffffffffffffffffffffffffffffffffffffffff8316925073ffffffffffffffffffffffffffffffffffffffff821691508382148383141790509392505050565b50505050565b60008060e883901c905060e8610fdf8686846112b6565b62ffffff16901b9150509392505050565b600073ffffffffffffffffffffffffffffffffffffffff83169250814260a01b178317905092915050565b50505050565b60008073ffffffffffffffffffffffffffffffffffffffff168273ffffffffffffffffffffffffffffffffffffffff160361106757611066638f4eb60460e01b610cd0565b5b67ffffffffffffffff600560008473ffffffffffffffffffffffffffffffffffffffff1673ffffffffffffffffffffffffffffffffffffffff16815260200190815260200160002054169050919050565b60008373ffffffffffffffffffffffffffffffffffffffff1663150b7a026110de610f76565b8786866040518563ffffffff1660e01b81526004016111009493929190611c88565b6020604051808303816000875af192505050801561113c57506040513d601f19601f820116820180604052508101906111399190611ce9565b60015b611194573d806000811461116c576040519150601f19603f3d011682016040523d82523d6000602084013e611171565b606091505b50600081510361118c5761118b63d1a57ed660e01b610cd0565b5b805181602001fd5b63150b7a0260e01b7bffffffffffffffffffffffffffffffffffffffffffffffffffffffff1916817bffffffffffffffffffffffffffffffffffffffffffffffffffffffff191614915050949350505050565b6060604051806060016040528060368152602001611d4e60369139905090565b606060a060405101806040526020810391506000825281835b60011561124257600184039350600a81066030018453600a8104905080611220575b50828103602084039350808452505050919050565b6112718282604051806020016040528060008152506112bf565b5050565b60007c0100000000000000000000000000000000000000000000000000000000821673ffffffffffffffffffffffffffffffffffffffff8316119050919050565b60009392505050565b6112c9838361133b565b60008373ffffffffffffffffffffffffffffffffffffffff163b1461133657600080549050600083820390505b61130960008683806001019450866110b8565b61131e5761131d63d1a57ed660e01b610cd0565b5b8181106112f657816000541461133357600080fd5b50505b505050565b6000805490506000820361135a5761135963b562e8dd60e01b610cd0565b5b6113676000848385610fc2565b611387836113786000866000610fc8565b611381856114c1565b17610ff0565b6004600083815260200190815260200160002081905550600160406001901b178202600560008573ffffffffffffffffffffffffffffffffffffffff1673ffffffffffffffffffffffffffffffffffffffff16815260200190815260200160002060008282540192505081905550600073ffffffffffffffffffffffffffffffffffffffff8473ffffffffffffffffffffffffffffffffffffffff161690506000810361143f5761143e632e07630060e01b610cd0565b5b600083830190506000839050611453610e0e565b60018303111561146e5761146d6381647e3a60e01b610cd0565b5b5b808360007fddf252ad1be2c89b69c2b068fc378daa952ba7f163c4a11628f55a4df523b3ef600080a481816001019150810361146f57816000819055505050506114bc600084838561101b565b505050565b60006001821460e11b9050919050565b6000604051905090565b600080fd5b600080fd5b60007fffffffff0000000000000000000000000000000000000000000000000000000082169050919050565b61151a816114e5565b811461152557600080fd5b50565b60008135905061153781611511565b92915050565b600060208284031215611553576115526114db565b5b600061156184828501611528565b91505092915050565b60008115159050919050565b61157f8161156a565b82525050565b600060208201905061159a6000830184611576565b92915050565b600081519050919050565b600082825260208201905092915050565b60005b838110156115da5780820151818401526020810190506115bf565b60008484015250505050565b6000601f19601f8301169050919050565b6000611602826115a0565b61160c81856115ab565b935061161c8185602086016115bc565b611625816115e6565b840191505092915050565b6000602082019050818103600083015261164a81846115f7565b905092915050565b6000819050919050565b61166581611652565b811461167057600080fd5b50565b6000813590506116828161165c565b92915050565b60006020828403121561169e5761169d6114db565b5b60006116ac84828501611673565b91505092915050565b600073ffffffffffffffffffffffffffffffffffffffff82169050919050565b60006116e0826116b5565b9050919050565b6116f0816116d5565b82525050565b600060208201905061170b60008301846116e7565b92915050565b61171a816116d5565b811461172557600080fd5b50565b60008135905061173781611711565b92915050565b60008060408385031215611754576117536114db565b5b600061176285828601611728565b925050602061177385828601611673565b9150509250929050565b61178681611652565b82525050565b60006020820190506117a1600083018461177d565b92915050565b6000806000606084860312156117c0576117bf6114db565b5b60006117ce86828701611728565b93505060206117df86828701611728565b92505060406117f086828701611673565b9150509250925092565b6000602082840312156118105761180f6114db565b5b600061181e84828501611728565b91505092915050565b6118308161156a565b811461183b57600080fd5b50565b60008135905061184d81611827565b92915050565b6000806040838503121561186a576118696114db565b5b600061187885828601611728565b92505060206118898582860161183e565b9150509250929050565b600080fd5b600080fd5b7f4e487b7100000000000000000000000000000000000000000000000000000000600052604160045260246000fd5b6118d5826115e6565b810181811067ffffffffffffffff821117156118f4576118f361189d565b5b80604052505050565b60006119076114d1565b905061191382826118cc565b919050565b600067ffffffffffffffff8211156119335761193261189d565b5b61193c826115e6565b9050602081019050919050565b82818337600083830152505050565b600061196b61196684611918565b6118fd565b90508281526020810184848401111561198757611986611898565b5b611992848285611949565b509392505050565b600082601f8301126119af576119ae611893565b5b81356119bf848260208601611958565b91505092915050565b600080600080608085870312156119e2576119e16114db565b5b60006119f087828801611728565b9450506020611a0187828801611728565b9350506040611a1287828801611673565b925050606085013567ffffffffffffffff811115611a3357611a326114e0565b5b611a3f8782880161199a565b91505092959194509250565b600060ff82169050919050565b611a6181611a4b565b82525050565b6000602082019050611a7c6000830184611a58565b92915050565b611a8b81611a4b565b8114611a9657600080fd5b50565b600081359050611aa881611a82565b92915050565b600060208284031215611ac457611ac36114db565b5b6000611ad284828501611a99565b91505092915050565b60008060408385031215611af257611af16114db565b5b6000611b0085828601611728565b9250506020611b1185828601611728565b9150509250929050565b7f4e487b7100000000000000000000000000000000000000000000000000000000600052602260045260246000fd5b60006002820490506001821680611b6257607f821691505b602082108103611b7557611b74611b1b565b5b50919050565b600081905092915050565b6000611b91826115a0565b611b9b8185611b7b565b9350611bab8185602086016115bc565b80840191505092915050565b6000611bc38285611b86565b9150611bcf8284611b86565b91508190509392505050565b7f4e487b7100000000000000000000000000000000000000000000000000000000600052601160045260246000fd5b6000611c1582611652565b915060008203611c2857611c27611bdb565b5b600182039050919050565b600081519050919050565b600082825260208201905092915050565b6000611c5a82611c33565b611c648185611c3e565b9350611c748185602086016115bc565b611c7d816115e6565b840191505092915050565b6000608082019050611c9d60008301876116e7565b611caa60208301866116e7565b611cb7604083018561177d565b8181036060830152611cc98184611c4f565b905095945050505050565b600081519050611ce381611511565b92915050565b600060208284031215611cff57611cfe6114db565b5b6000611d0d84828501611cd4565b9150509291505056fe437265617465204e4654206c696b6520696d6167657320646570696374696e6720616e206166726963616e2062617262696520646f6c6c697066733a2f2f516d614a556a5234474853485152347743625357734e376e39655861386471723950437539514c6353786f4d766b2fa2646970667358221220561114d745b1790122af0cafd7ac87054c116910e17a02d2a67b4e111980325164736f6c63430008140033",
  "linkReferences": {},
  "deployedLinkReferences": {}
}